{
	"abi": [
		{
			"type": "constructor",
			"inputs": [
				{
					"name": "_worldId",
					"type": "address",
					"internalType": "contract IWorldID"
				},
				{
					"name": "_appId",
					"type": "string",
					"internalType": "string"
				},
				{
					"name": "_actionId",
					"type": "string",
					"internalType": "string"
				}
			],
			"stateMutability": "nonpayable"
		},
		{
			"type": "function",
			"name": "verifyAndExecute",
			"inputs": [
				{
					"name": "signal",
					"type": "address",
					"internalType": "address"
				},
				{
					"name": "root",
					"type": "uint256",
					"internalType": "uint256"
				},
				{
					"name": "nullifierHash",
					"type": "uint256",
					"internalType": "uint256"
				},
				{
					"name": "proof",
					"type": "uint256[8]",
					"internalType": "uint256[8]"
				}
			],
			"outputs": [],
			"stateMutability": "nonpayable"
		},
		{
			"type": "event",
			"name": "Verified",
			"inputs": [
				{
					"name": "nullifierHash",
					"type": "uint256",
					"indexed": false,
					"internalType": "uint256"
				}
			],
			"anonymous": false
		},
		{
			"type": "error",
			"name": "DuplicateNullifier",
			"inputs": [
				{
					"name": "nullifierHash",
					"type": "uint256",
					"internalType": "uint256"
				}
			]
		}
	],
	"bytecode": {
		"object": "0x60e0604052600160c090815250348015610017575f5ffd5b5060405161096c38038061096c833981810160405281019061003991906102c6565b8273ffffffffffffffffffffffffffffffffffffffff1660808173ffffffffffffffffffffffffffffffffffffffff16815250506100ca61009e836040516020016100849190610392565b6040516020818303038152906040526100d960201b60201c565b826040516020016100b09291906103d1565b6040516020818303038152906040526100d960201b60201c565b60a08181525050505050610452565b5f6008826040516020016100ed919061043c565b604051602081830303815290604052805190602001205f1c901c9050919050565b5f604051905090565b5f5ffd5b5f5ffd5b5f73ffffffffffffffffffffffffffffffffffffffff82169050919050565b5f6101488261011f565b9050919050565b5f6101598261013e565b9050919050565b6101698161014f565b8114610173575f5ffd5b50565b5f8151905061018481610160565b92915050565b5f5ffd5b5f5ffd5b5f601f19601f8301169050919050565b7f4e487b71000000000000000000000000000000000000000000000000000000005f52604160045260245ffd5b6101d882610192565b810181811067ffffffffffffffff821117156101f7576101f66101a2565b5b80604052505050565b5f61020961010e565b905061021582826101cf565b919050565b5f67ffffffffffffffff821115610234576102336101a2565b5b61023d82610192565b9050602081019050919050565b8281835e5f83830152505050565b5f61026a6102658461021a565b610200565b9050828152602081018484840111156102865761028561018e565b5b61029184828561024a565b509392505050565b5f82601f8301126102ad576102ac61018a565b5b81516102bd848260208601610258565b91505092915050565b5f5f5f606084860312156102dd576102dc610117565b5b5f6102ea86828701610176565b935050602084015167ffffffffffffffff81111561030b5761030a61011b565b5b61031786828701610299565b925050604084015167ffffffffffffffff8111156103385761033761011b565b5b61034486828701610299565b9150509250925092565b5f81519050919050565b5f81905092915050565b5f61036c8261034e565b6103768185610358565b935061038681856020860161024a565b80840191505092915050565b5f61039d8284610362565b915081905092915050565b5f819050919050565b5f819050919050565b6103cb6103c6826103a8565b6103b1565b82525050565b5f6103dc82856103ba565b6020820191506103ec8284610362565b91508190509392505050565b5f81519050919050565b5f81905092915050565b5f610416826103f8565b6104208185610402565b935061043081856020860161024a565b80840191505092915050565b5f610447828461040c565b915081905092915050565b60805160a05160c0516104f261047a5f395f60e701525f61013101525f60aa01526104f25ff3fe608060405234801561000f575f5ffd5b5060043610610029575f3560e01c8063e9b705531461002d575b5f5ffd5b610047600480360381019061004291906102ee565b610049565b005b5f5f8381526020019081526020015f205f9054906101000a900460ff16156100a857816040517f78ffaa2600000000000000000000000000000000000000000000000000000000815260040161009f9190610362565b60405180910390fd5b7f000000000000000000000000000000000000000000000000000000000000000073ffffffffffffffffffffffffffffffffffffffff16633bc778e3847f000000000000000000000000000000000000000000000000000000000000000061012e8860405160200161011a91906103c0565b604051602081830303815290604052610203565b867f0000000000000000000000000000000000000000000000000000000000000000876040518763ffffffff1660e01b8152600401610172969594939291906103f4565b5f6040518083038186803b158015610188575f5ffd5b505afa15801561019a573d5f5f3e3d5ffd5b5050505060015f5f8481526020019081526020015f205f6101000a81548160ff0219169083151502179055507ff786e7f77ede00a02a5464f8f0555798f42ba99a4a920ef2778db8d75e4656f7826040516101f59190610362565b60405180910390a150505050565b5f60088260405160200161021791906104a6565b604051602081830303815290604052805190602001205f1c901c9050919050565b5f5ffd5b5f73ffffffffffffffffffffffffffffffffffffffff82169050919050565b5f6102658261023c565b9050919050565b6102758161025b565b811461027f575f5ffd5b50565b5f813590506102908161026c565b92915050565b5f819050919050565b6102a881610296565b81146102b2575f5ffd5b50565b5f813590506102c38161029f565b92915050565b5f5ffd5b5f819050826020600802820111156102e8576102e76102c9565b5b92915050565b5f5f5f5f610160858703121561030757610306610238565b5b5f61031487828801610282565b9450506020610325878288016102b5565b9350506040610336878288016102b5565b9250506060610347878288016102cd565b91505092959194509250565b61035c81610296565b82525050565b5f6020820190506103755f830184610353565b92915050565b5f8160601b9050919050565b5f6103918261037b565b9050919050565b5f6103a282610387565b9050919050565b6103ba6103b58261025b565b610398565b82525050565b5f6103cb82846103a9565b60148201915081905092915050565b82818337505050565b6103f061010083836103da565b5050565b5f6101a0820190506104085f830189610353565b6104156020830188610353565b6104226040830187610353565b61042f6060830186610353565b61043c6080830185610353565b61044960a08301846103e3565b979650505050505050565b5f81519050919050565b5f81905092915050565b8281835e5f83830152505050565b5f61048082610454565b61048a818561045e565b935061049a818560208601610468565b80840191505092915050565b5f6104b18284610476565b91508190509291505056fea2646970667358221220a1486455aae11cd0321057430f6d3283bfbf51ce5ecfc811332e952fdddc239664736f6c634300081c0033",
		"linkReferences": {}
	},
	"methodIdentifiers": {
		"verifyAndExecute(address,uint256,uint256,uint256[8])": "e9b70553"
	},
	"id": 0
}